:020000040800F2
:10000000B847002089010008F9900108759101089E
:100010005D930108DD9301085D9401080000000074
:10002000000000000000000000000000DD94010856
:100030005D95010800000000DD950108000000004A
:1000400000000000000000000000000000000000B0
:1000500000000000000000000000000000000000A0
:100060000000000000000000000000000000000090
:1000700000000000BD260208000000000000000093
:100080002D3102080000000001D00108000000002E
:100090000000000000000000000000000000000060
:1000A0000000000000000000000000000000000050
:1000B0000000000000000000000000000000000040
:1000C0000000000000000000000000000000000030
:1000D00000000000D12B0208D5300208000000000B
:1000E0000000000000000000000000000000000010
:1000F0000000000000000000000000000000000000
:1001000000000000000000000000000000000000EF
:10011000652602080000000099D8020869D8020884
:1001200000000000000000000000000000000000CF
:1001300000000000000000000000000000000000BF
:1001400000000000000000000000000000000000AF
:10015000152C020800000000000000000000000054
:10016000000000000000000000000000000000008F
:10017000000000000000000000000000000000007F
:10018000000000000000000044F20003C0F600037D
:1001900070B51B6898474FF46D43CEF2000340F2F0
:1001A000586240F20000D3F8885045F2B844C2F2D9
:1001B0000002C2F200000021C2F20004121A45F44B
:1001C00070058A42C3F88850216005DD4EF2B041C7
:1001D000C0F602010BF020FC44F2B87240F2586005
:1001E000C2F20002C2F200000021161A45F2B84520
:1001F0008E42C2F20005216003DD32460BF060FC46
:100200002E60BDE870402DF04BBA00BF000000002A
:1002100000000000000000000000000000000000DE
:1002200000000000000000000000000000000000CE
:1002300000000000000000000000000000000000BE
:1002400000000000000000000000000000000000AE
:103FD0000000000000000000383036352D54454305
:103FE000205357204730312020202020000000009F
:103FF00014010000DC000000640000006C1C0428B8
:104000000540000843F63003C4F2020343F6FC7295
:104010001968C0F6000241F480512DE9F04F196093
:104020001368002B3FD043F6FC73C0F608031168F9
:104030001A68914237D043F20802C4F20202012109
:104040001C68116000BF00BF00BF00BF00BF00BF01
:1040500000BF00BF00234FF4405043F6FC71C0F690
:104060000803C4F20200C0F6080153F8042B8B4287
:104070000260FAD14FF400434FF440501946C4F2A5
:10408000020001F1006101F50021043309684FF4D9
:104090004052B3F5002F0160C4F202021946F0D17C
:1040A00013689C4209D043F63003C4F202031A6835
:1040B00022F480521A60BDE8F08F4FF4705340F242
:1040C000231C48F6AB1E43F6FC7543F20807C4F206
:1040D0000203C4F2675CCCF6EF5EC0F60005C4F2E2
:1040E00002070B264FF0F3094FF001081969002968
:1040F000B8BFC3F804C04FF0010AB8BFC3F804E06A
:104100000020C3F80C9002E001300AF1010A0128F6
:10411000FAD0196921F440711961196941F40071EB
:104120001961196921F0F8011961196941F0020159
:1041300041EAC0011961196941F480311961DC68F3
:104140004FF4705114F48034C4F20201F7D1D1F865
:1041500010B02BF0020BC1F810B0D1F810B0BAF1CA
:10416000080F2BF0F80BC1F810B0CDD104F1006AA4
:104170000AF5002ADAF80010186920F44070186176
:10418000186940F400701861186940F00100186166
:104190002160DAF80010D8684FF47051C003C4F2FF
:1041A0000201F6D40869043420F00100B4F5804F10
:1041B0000861DBD14FF4004404F1006A0AF5002ADB
:1041C000DAF80010186920F440701861186940F49A
:1041D00000701861186940F0010018612160DAF878
:1041E0000010D8684FF47051C003C4F20201F6D435
:1041F0000869043420F00100B4F5002F0861DBD118
:10420000086940F000400861D5F800A0C7F80080B8
:1042100000BF00BF00BF00BF00BF00BF00BF00BFA6
:104220004FF0006151F8040BA9421060FAD14FF42D
:1042300000410C4604F10064043124684FF44050FE
:10424000B1F5002F1460C4F202000C46F2D1013E19
:10425000016802D08A457FF449AFBFF34F8F4EF615
:104260000C52CEF2000204231168C0F2FA5301F49A
:10427000E0610B431360BFF34F8FFEE700000000C7
:10428000000000000000000000000000000000002E
:10429000000000000000000000000000000000001E
:1042A000000000000000000000000000000000000E
:1042B00000000000000000000000000000000000FE
:107FF000040000006500000000000000D7F3C40783
:1080000020F00040B0F1FF4FD4BF002001207047A6
:1080100008B5C0F3C7537F3B0146162B024610DC60
:10802000002B15DB4FF6FF70C0F27F0018410842AD
:1080300009D04FF4800141FA03F31A4422EA000008
:1080400008BD802B01D0084608BD03F0EBF908BD40
:10805000013300F00040F7D140F07E5008BD00BF72
:1080600040F6D87320F00042C3F6497301469A42A5
:1080700000B583B018DDB2F1FF4F04DB03F0D0F997
:1080800003B05DF804FB694601F04CFC00F003000E
:10809000012818D002280ED0D0B10098019901F023
:1080A0003BFE00F10040EBE70021002202F03EFA27
:1080B00003B05DF804FB00980122019902F036FA42
:1080C00000F10040DCE70098019901F025FED7E7B8
:1080D00000980122019902F029FAD1E72DE9F04F29
:1080E0008BB01D4680468946144600F0A5FA40F242
:1080F000D40AC2F2000A9AF90030013306460F464C
:1081000004D02046294602F099FA20B93046394673
:108110000BB0BDE8F08F4046494602F08FFA834627
:1081200040BB204629460022002303F0CBF800285C
:10813000ECD09AF900004EF234410023C0F602015F
:10814000B0F1FF3F18BF02284FF001064FF00002C8
:10815000C3F6F073CDF820B0CDE90289CDE904452E
:1081600001910096CDE9062330D1DDE906010BB07F
:10817000BDE8F08F404649460022002303F0A2F8F4
:10818000002830D0204629460022002303F09AF828
:108190008346002868D09AF900204EF23443CDE996
:1081A0000445C0F602030120002400250021CDE98A
:1081B0000289CDE906458DE80900089132B1002316
:1081C0000022C3F6F073CDE90623CEE7684602F03D
:1081D0005DFA002877D0089B002BC6D003F016FC70
:1081E000089B0360C1E73046394602F021FA834616
:1081F00000286DD0304639460022002303F062F893
:10820000002883D04046494602F012FA00283FF485
:108210007DAF2046294602F00BFA00283FF476AFE6
:108220009AF900204EF23443CDE90445C0F602032A
:10823000022A4FF004004FF000044FF000054FF009
:108240000001CDE90289CDE906458DE809000891D4
:1082500000F09080684602F019FA002800F08A8049
:10826000089B002B81D0B9E72046294602F0E0F9AF
:1082700000283FF44BAF204629460022002303F09C
:108280002BF800283FF442AF9AF800104EF2344326
:10829000C0F602030122CDF820B08DE80C000022C8
:1082A000CDE902890023CDE90445002936D1CDE985
:1082B0000623684602F0EAF90028D1D103F0A6FBB4
:1082C00021230360CCE703F0A1FB2123036082E7B5
:1082D0004046494602F0ACF900288BD0204629469A
:1082E00002F0A6F9002885D03046394602F0A6F9FA
:1082F000D8B99AF800604EF23443C0F60203012266
:108300000890CDE90289CDE904458DE80C00002EE6
:1083100035D100240025CDE90645CAE70229CFF66C
:10832000F073CDE90623C9D0C3E79AF900204EF2D5
:1083300034430321C0F60203CDF820B040468DE857
:108340000A004946CDE90289CDE9044512BB4FF642
:10835000FF77002200234FF06046C4F2EF77CDE9AB
:10836000066702F0B9FF002839D19AF90030022BD4
:108370007FF470AF03F04AFB2223036070E7002014
:10838000002102460B4602F05FFE022ECDE90601F7
:1083900094D08EE70027002200230026C7F6F0774E
:1083A000CDE9066702F098FF0028DED00023002206
:1083B000C3F6E0732046294602F01CFD04460D4634
:1083C00002F06CF922462B4602F07CFF0028CCD14B
:1083D00000230022CFF6F073CDE90623C5E7002382
:1083E0000022C3F6E0732046294602F003FD04464E
:1083F0000D4602F053F922462B4602F063FF002897
:10840000B3D14FF6FF734FF06042CCF2EF73CDE97A
:108410000623AAE770B58AB0054600F07FFF40F258
:10842000D404C2F2000494F900300133064603D0AC
:10843000284602F0A1FA10B930460AB070BD2846AD
:1084400002F04AFA4FF07E5103F0B0FA0028F3D060
:1084500028464EF238430122C0F6020300920193EF
:108460000023089302F072FC02464EF23040C0F640
:1084700002000B46CDE90423CDE9022302F008F9FE
:1084800094F90030022BCDE906010BD0684602F0CA
:10849000FDF838B1089B53B9DDE9060102F06CFF25
:1084A0000AB070BD03F0B2FA21230360F2E703F0D3
:1084B000ADFA089B0360EFE770B58AB0054601F09E
:1084C000B1F840F2D404C2F2000494F90030013350
:1084D000064609D0284602F04FFA28B12846002166
:1084E00003F064FA034610B130460AB070BD4EF294
:1084F00040422846C0F602020893019202F026FC90
:108500002478CDE90401CDE9020174BB4FF6FF7375
:108510004FF06042CCF2EF73CDE9062328460021EC
:1085200003F01CFA78B1022300939C4229D06846DC
:1085300002F0ACF828B3089B43BBDDE9060102F06A
:108540001BFF0AB070BD022C4FF00103009313D043
:10855000684602F09BF878B14EF23040C0F6020057
:1085600002F096F8CDE90601E5E700230022CFF6F8
:10857000F073CDE90623D1E703F048FA2123036025
:10858000EAE703F043FA22230360D4E703F03EFA5C
:10859000089B0360D1E700BF70B58AB0054601F0C3
:1085A00065FB40F2D404C2F2000494F900300133B8
:1085B000064608D0284602F0DFF920B128460021FF
:1085C00003F0D6F910B930460AB070BD28464EF215
:1085D0004843C0F60203012201930023009208934E
:1085E00002F0B4FB2478CDE90401CDE902017CB9A5
:1085F00000220023CDE90623684602F047F888B13F
:10860000089BA3B9DDE9060102F0B6FE0AB070BD11
:108610000020002102460B4602F016FD022CCDE997
:108620000601E9D103F0F2F921230360E8E703F042
:10863000EDF9089B0360E5E72DE9F04F23F0004BCF
:10864000814606465BEA020093B090469C4614467B
:108650001D468A460F4600F08A80002221F0004025
:10866000C7F6F0720290904212DDDDF808A00AF120
:10867000404C0CF5801C5CEA060640F082804FF00E
:10868000000AC3F6F07A3046514613B0BDE8F08FC9
:1086900014BF00230123B9F1000F0CBF002103F028
:1086A00001010029E1D19345DFDC14BF0021012144
:1086B000B8F1000F0CBF002201F00102002AD4D152
:1086C000002F67DB0692A4B9002940F088800022C1
:1086D000C3F6F072934500F0B280B5F1804F04BF4D
:1086E000484651463CD00022C3F6E072954200F065
:1086F000F783484651460193CDF800C001F094FF3E
:10870000019BDDF800C0049156B90299002908BF09
:1087100043F00103002B7BD1C3F6F073994277D06D
:10872000FB0F0699013B0A9319437BD00023C4F247
:10873000E0139B4540F3A0800023C4F2F0339B4537
:1087400040F34E844FF6FF73DDF808A0C3F6EF73D5
:108750009A4540F3E083002D57DD45A1D1E90001A2
:1087600002460B4602F046FB06468A468BE74FF070
:10877000000A0646C3F6F07A3046514613B0BDE80B
:10878000F08F4EF23040C0F6020013B0BDE8F04F5B
:1087900001F07EBF4FF6FF70C4F23F3083455EDCD0
:1087A0004FF6FF70C3F6EF7083458BDD4FEA2B5217
:1087B00040F21340824240F3B284C2F58662033233
:1087C00028FA02F000FA02F2424502BF00F001006E
:1087D000C0F1020006903FF476AF002272E7DDF8A8
:1087E00008A00AF1404303F580131E433FF447AF4E
:1087F0004FF6FF73C3F6EF739A4540F3BE83002D27
:10880000A4BF4646E246BFF63EAF0026B2463AE770
:10881000002DC0F25F84002FC0F26C830646DDF8A5
:1088200010A030E7484651464A46534602F02EF91A
:1088300002460B4602F008FC06468A4623E7002D56
:10884000A8BF4E46BFF61FAF002153464A46002040
:10885000C3F6F07102F0F8FB06468A4613E70220E1
:108860000690002C3FF430AF43E700BFAFF3008029
:108870009C7500883CE4377EDDF808B0BBF5801FAE
:10888000A8BF002110DA049D0023C4F24033002267
:108890002946CDF800C002F0ADFADDF800C00B4665
:1088A00004916FF034010293DDF808A049F68E02BE
:1088B000C0F20302CAF313034FEA2A549342A4F20C
:1088C000FF3543F07F540D441195D8BF002544F483
:1088D0004014D8BFA94614DD4BF27962C0F20B02F6
:1088E0009342C1BF0025A4F58014DDF844B0A94629
:1088F000D9BF4FF480254FF001090BF1010BCDF8E2
:1089000044B04DF608310246C0F60201234601EBA1
:10891000C909CDE908232146CDF800C0D9E900AB4B
:1089200052465B46CDE90CAB02F0B0F8DDE90C2312
:1089300006460F46DDE9080102F0AAF80B460021C1
:108940000246C3F6F071002002F07EFBCDE90E0175
:108950003046DDE90E23394602F04CFA0022CDE91B
:1089600004016110DDE904AB002041F00051144620
:1089700001F50021CDE902AB6B1802901D46DDE93F
:1089800002AB5046594602F035FA02460B463046D5
:10899000394602F07BF8DDE90C2306460F462046F7
:1089A000294602F073F802460B46DDE9080102F0A1
:1089B0006DF802460B465046594602F01BFA024635
:1089C0000B463046394602F061F8DDE90E2302F02D
:1089D00011FA06460F46DDE9040102460B4602F095
:1089E00009FA02460B4604460D4602F003FA7AA342
:1089F000D3E90023CDE908012046294602F0FAF91F
:108A000077A3D3E9002302F043F822462B4602F075
:108A1000F1F975A3D3E9002302F03AF822462B4678
:108A200002F0E8F972A3D3E9002302F031F82246FC
:108A30002B4602F0DFF970A3D3E9002302F028F8F7
:108A400022462B4602F0D6F96DA3D3E9002302F0AB
:108A50001FF802460B46DDE9080102F0CBF9DDE91B
:108A6000042304460D465046594602F011F832469A
:108A70003B4602F0BFF922462B4602F009F8524667
:108A80005B46CDE908015046594602F0B3F9002390
:108A90000022C4F20803CDE90C0101F0F9FFDDE981
:108AA000082301F0F5FF029C504622460D46594628
:108AB0002B4602F09FF922462B4682468B463046D3
:108AC000394602F097F900230022C4F20803064653
:108AD0000F462046294601F0D9FFDDE90C2301F0BD
:108AE000D5FF02460B46DDE9080101F0CFFFDDE9C5
:108AF000042302F07FF902460B463046394601F066
:108B0000C7FF06460F4632463B465046594601F0DF
:108B1000BFFF02983CA3D3E9002304460D4602F0B0
:108B200069F93BA3D3E90023CDE908012046294692
:108B300002F060F952465B46CDE904012046294621
:108B400001F0A4FF02460B463046394601F09EFF75
:108B500031A3D3E9002302F04DF902460B46DDE9CB
:108B6000040101F095FFD9E9042301F091FF824649
:108B700011988B4602F0D8F8D9E90823CDE90423EF
:108B800052465B4604460D46DDE9080101F080FFD0
:108B9000DDE9042301F07CFF22462B4601F078FF3B
:108BA000029822462B4606460F4601F06FFFDDE98C
:108BB000042301F06BFFDDE9082301F067FF0246A3
:108BC0000B465046594601F061FFCDE90401DDF83E
:108BD00000C025E0AFF30080EF4E454A287ECA3F33
:108BE00065DBC9934A86CD3F01411DA96074D13F21
:108BF0004D268F515555D53FFFAB6FDBB66DDB3F33
:108C0000033333333333E33F000000E009C7EE3F63
:108C1000F5015B14E02F3EBEFD033ADC09C7EE3FD1
:108C2000DDF818A00022DDF828B061460AF1FF3314
:108C30004FF0000A53EA0B0B4FF0000B0CBFCBF6C2
:108C4000F07BC3F6F07BCDE90AABE346C246CDE943
:108C500002AB02924046DDE902ABCDF800C05246BD
:108C60005B4601F013FF3B46324602F0C3F8DDF8E5
:108C700000C0DDE9042304460D464046614602F08B
:108C8000B9F802460B462046294601F001FF3B4653
:108C90003246CDE906015046594602F0ABF804468B
:108CA0000D462B46DDE90601224601F0F1FE4FF6A6
:108CB000FF73C4F28F03994282468B460F4640F3FE
:108CC0002E8101F13F4303F5E003034340F00D82A1
:108CD000AFA3D3E90023DDE9060101F0D9FE224666
:108CE0002B46804689465046594601F0CFFE024643
:108CF0000B464046494602F00DFBD846002840F09E
:108D0000F4814FEA28534FF48011A3F2FE334FF65B
:108D1000FF701941C0F20F003944002FC1F30A5609
:108D2000C1F3130AA6F2FF3E4AF4801AC6F5826622
:108D300040FA0EF006F1030621EA00034FF00002AC
:108D40004AFA06FA20462946B8BFCAF1000A01F0DD
:108D50009DFE4FEA0A5B04460D462246DDE9060108
:108D60002B4601F095FE00268BA3D3E90023304665
:108D70000F4602F03FF822462B4680468946304691
:108D8000394601F083FE02460B46DDE9060101F09B
:108D90007DFE83A3D3E9002302F02CF882A3D3E95C
:108DA000002304460D463046394602F023F80246B9
:108DB0000B462046294601F06BFE04460D4622462E
:108DC0002B464046494601F063FE42464B46064666
:108DD0000F4601F05BFE02460B462046294601F095
:108DE00055FE32463B46804689463046394602F0BB
:108DF00001F86FA3D3E9002304460D4601F0FAFF02
:108E00006DA3D3E9002301F041FE22462B4601F079
:108E1000F1FF6BA3D3E9002301F03AFE22462B4673
:108E200001F0E8FF68A3D3E9002301F02FFE2246FA
:108E30002B4601F0DFFF66A3D3E9002301F028FEF3
:108E400022462B4601F0D6FF02460B4630463946F5
:108E500001F01CFE04460D4622462B46304639469C
:108E600001F0C8FF00224FF08043CDE90201204607
:108E7000294601F00BFE02460B46DDE9020102F035
:108E8000E3F842464B4604460D463046394601F06B
:108E9000B1FF42464B4601F0FBFD02460B46204621
:108EA000294601F0F3FD32463B4601F0EFFD0B464B
:108EB00000210246C3F6F071002001F0E7FD8B446B
:108EC0000B46BBF5801F0246A8BF5B46C0F2478138
:108ED000DDE90A0101F08EFF06468A46FFF7D3BBA3
:108EE000002FFFF606AC4846514613B0BDE8F04FE0
:108EF00000F056B9DDF808A0DDF818B00AF14043DB
:108F000003F580135BEA030B40F01781049D0246D2
:108F10002B4629468AE4002DBFF677AC1DE44CF6BB
:108F2000FF3321F00048C4F29003984540F3ED80F0
:108F300001F17D5303F53C1303F5505303430CD16A
:108F400022462B4601F0A2FD02460B46DDE9060152
:108F500002F0CCF900283FF4D4AE1FA3D3E90023DC
:108F6000DDE90A0101F046FF1BA3D3E9002301F06C
:108F700041FF06468A46FFF786BB002DBCBF46462A
:108F80000CF1004ABFF641ACFFF77DBBAFF30080A8
:108F9000FE822B654715973C00000000432EE63FFC
:108FA000EF39FAFE422EE63F396CA80C615C20BE18
:108FB000D0A4BE726937663EF16BD2C541BDBB3EDF
:108FC0002CDE25AF6A56113F93BDBE166CC1663FBD
:108FD0003E5555555555C53F59F3F8C21F6EA5016D
:108FE0004FF6FE73DDF808B0C3F6EF739B4592DDD4
:108FF0000023DDF808A0C3F6F0739A453FF7ABAB4A
:10900000049D00230022C3F6F0732946CDF800C06A
:1090100001F03CFD58A3D3E9002304460D4601F0BE
:10902000E9FE57A3D3E9002382468B462046294612
:1090300001F0E0FE22462B46CDE9020120462946FA
:1090400001F0D8FE00230022C3F6D07306460F4677
:109050002046294601F0CEFE02460B464AA1D1E940
:10906000000101F013FD22462B4601F0C3FE0B4622
:1090700000210246C3F6E071002001F007FD024620
:109080000B463046394601F0B5FE41A3D3E9002333
:1090900001F0B0FE02460B46DDE9020101F0F6FCEC
:1090A00004460D4622462B465046594601F0F0FC38
:1090B000002052465B4606460F4601F0E7FC02469A
:1090C0000B462046294601F0E1FCDDF800C0CDE961
:1090D0000401A5E500210246049B0020C3F6F071BF
:1090E00001F0B2FF0491FFF796BB2BA3D3E9002355
:1090F000DDE90A0101F07EFE27A3D3E9002301F098
:1091000079FE06468A46FFF7BEBA0023C3F6E0732F
:1091100098453FF7F6ADDDF808B0DA4623E6D4B956
:10912000C2F5826203324BFA02F000FA02F25A45AB
:109130001BD000200690FFF7C7BA06990646012902
:1091400004BFDDF810B00BF1004A3FF49CAADDF833
:1091500010A0FFF798BA00200690FFF7CABA52464F
:1091600001F02EFB02460B46B2E600F00100C0F112
:1091700002000690FFF7A8BA000000604715F73F0D
:1091800044DF5DF80BAE543E555555555555D53F0A
:10919000FE822B654715F73F9C7500883CE4377EBF
:1091A00021F0004C02462DE9F8434FEA1C5C4FF0D9
:1091B00000080646C7F6F0784FEA0C5CC4450F4637
:1091C0000B4600F09080002971DD0F157AD0A7F2D0
:1091D000FF37C3F31303F90743F4801342BFD10FE2
:1091E000520001EB43034FF0000CD10F7F1001EB55
:1091F00043035200604616244FF400114518D60F61
:109200009D424FEA4202DEBFC5EB030368188C445F
:10921000013C06EB43034FEA5101EFD12026A04663
:109220004FF0004112E081461B1A954288BF03F1BE
:10923000FF33521B0C444846013E4FEAD2754FEAB9
:10924000510105EB43034FEA420215D0984201EB6E
:10925000080503DB954298BF8342EDD105F0004934
:1092600005EB0108B9F1004FDDD1B8F1000FA8BF3F
:1092700000F10109D8DAD6E7134307D0631C08BF11
:109280000CF1010C03D004F001031C4466084FEA02
:109290006C031CF0010F03F17F5318BF46F000462A
:1092A00003F50013304603EB0751BDE8F88321F0C6
:1092B0000043034321D031BB0F46D30A153F52056B
:1092C000002BFAD013F4801119D15B000131D802C0
:1092D000FBD5C1F10104C1F1200022FA00F02744BE
:1092E00003438A4073E702460B4601F083FD324692
:1092F0003B4601F0CDFBBDE8F883BDE8F8832020B4
:1093000001240021E9E702460B4601F0BFFB0246BB
:109310000B4601F099FEBDE8F88300BF2DE9F04748
:1093200020F00045B5F17E5F0446064600F0FA8065
:1093300014DCB5F17C5F19DAB5F1485F80F2068183
:109340004FF2CA21C7F2491102F06CF84FF07E517A
:1093500002F02CFB50B12046BDE8F087014602F038
:109360005FF8014602F01AFABDE8F087204601F0E6
:10937000B3FA01464FF07E5002F052F84FF07C51A4
:1093800002F058F94EF60871C3F61101044602F0D6
:1093900051F947F60471C3F64F2102F043F8214614
:1093A00002F048F941F24611C3F6245102F038F8B0
:1093B000214602F03FF940F6A821C3F64E6102F0C3
:1093C00031F8214602F036F94BF29001C3F6A6615E
:1093D00002F026F8214602F02DF94AF6AB21C3F639
:1093E0002A6102F01FF8214602F024F94CF22E61A6
:1093F000C3F69D518146204602F01CF943F26131CB
:10940000C3F6307102F00CF8214602F013F945F270
:109410002D71C4F2010102F005F8214602F00AF9AB
:109420004DF23911C4F2190101F0FAFF214602F0A0
:1094300001F94FF07E5101F0F5FF8046204600F023
:1094400015FC49F69913C3F679739D4207464DDC26
:10945000014620F47F6501F0E5FF414625F00F0548
:109460008246484602F09AF90146504602F0E2F878
:1094700029468046284602F0DDF80146204601F0E4
:10948000CFFF29460446384601F0CCFF014620466E
:1094900002F084F9014601F0C5FF01464BF62E505B
:1094A000CBF23B3001F0BCFF0146404601F0B8FF73
:1094B00029460446284601F0B5FF014640F6DB7018
:1094C000C3F6497001F0ACFF0146204601F0A8FF49
:1094D000014640F6DB70C3F6497001F0A1FF002E93
:1094E0003FF73AAF00F10040BDE8F08741464846FB
:1094F00002F054F90146384602F09CF8394601F072
:1095000091FF014601F08EFF4BF62E51C3F23B3125
:1095100001F088FF014640F6DB70C3F6C97001F028
:109520007FFFDCE740F6DB71C3F6C97102F082F819
:109530004BF62E51CBF23B310546204602F07AF82D
:109540000146284601F06EFFBDE8F087014602F0B3
:1095500071F84EF60871C3F61101054602F06AF87B
:1095600047F60471C3F64F2101F05CFF294602F073
:1095700061F841F24611C3F6245101F051FF29462A
:1095800002F058F840F6A821C3F64E6101F04AFFF8
:10959000294602F04FF84BF29001C3F6A66101F0A4
:1095A0003FFF294602F046F84AF6AB21C3F62A618E
:1095B00001F038FF294602F03DF84CF22E61C3F667
:1095C0009D510646284602F035F843F26131C3F654
:1095D000307101F025FF294602F02CF845F22D717B
:1095E000C4F2010101F01EFF294602F023F84DF2FA
:1095F0003911C4F2190101F013FF294602F01AF8DB
:109600004FF07E5101F00EFF0146304602F0C6F8E1
:109610000146204602F00EF8214601F003FFBDE8A6
:10962000F08700BF20F0004201462DE9F84F0346C5
:10963000002A00F0B0800028C0F2D380B0F1FF4FC4
:1096400080F2CB80B0F5000FA8BF002706DA4FF0FC
:1096500098416FF0180701F0EDFF03464FF62030F8
:10966000C3F31604C0F24A00DB1520447F3B00F42C
:1096700000021F4482F07E504FF07E51204307EBE2
:10968000D25701F0CDFE04F10F03C3F316030F2BE5
:10969000054640F387804FF0804145F6304801F0A1
:1096A000C1FECFF6CF78A044C4F5571404F5227458
:1096B00044EA08080146284602F070F88146384618
:1096C00001F064FF49468346484601F0B3FF014676
:1096D000824601F0AFFF48F69701C3F617610646D0
:1096E00001F0A8FF43F22531C3F63A6101F09AFE7A
:1096F000314601F09FFF44F62511C3F6926101F057
:1097000091FE314601F096FF4AF6AB21C3F62A716D
:1097100001F088FE514601F08DFF4DF24F01C3F676
:109720001C618246304601F085FF48F62961C3F688
:10973000636101F077FE314601F07CFF4CF6CD41CC
:10974000C3F6CC6101F06EFE314601F073FF0146B5
:10975000504601F067FEB8F1000F064640F3AF80B7
:109760004FF07C51284601F065FF294601F062FF69
:109770000446002F59D1314601F054FE494601F00C
:1097800059FF0146204601F04BFE0146284601F0F4
:1097900047FEBDE8F88F00214FF04C4001F0FEFF7E
:1097A000BDE8F88F002102F0D9F808B3002F00F0CF
:1097B0008380384601F0EAFE4FF4E341C3F631718D
:1097C000054601F037FF4FF2D171C3F2177104461D
:1097D000284601F02FFF0146204601F023FEBDE898
:1097E000F88F01F01DFE002101F0D8FFBDE8F88FD1
:1097F0002946284601F01EFF4AF6AB21C3F6AA61AE
:109800000446284601F016FF01464FF07C5001F057
:1098100007FE0146204601F00DFF04466FBB2846B7
:10982000214601F0FDFDBDE8F88F4FF4E3415846B5
:10983000C3F6317101F0FEFE31460746204601F0C5
:10984000F1FD494601F0F6FE4FF2D171C3F21771F6
:109850000646584601F0EEFE0146304601F0E2FDB4
:109860000146204601F0DCFD294601F0D9FD014604
:10987000384601F0D5FDBDE8F88F384601F086FE88
:109880004FF4E341C3F63171074601F0D3FE4FF2C6
:10989000D171C3F217710646384601F0CBFE01467E
:1098A000204601F0BDFD294601F0BAFD01463046D3
:1098B00001F0B6FDBDE8F88F0020BDE8F88F1FB3BA
:1098C0004FF4E3415846C3F6317101F0B3FE31461F
:1098D0000446284601F0A4FD494601F0ABFE4FF2D4
:1098E000D171C3F217710646584601F0A3FE014636
:1098F000304601F095FD294601F092FD01462046D3
:1099000001F08EFDBDE8F88F0146284601F088FD84
:10991000494601F08FFE0146284601F081FDBDE871
:10992000F88F00BF40F6D8732DE9F04FC3F64973A6
:1099300020F0004489B09C4206460D4640F38380E7
:109940004CF6E333C4F216039C4228DC00284FF4A3
:109950007861C3F6C97140F3288101F061FD4FF4CD
:109960007D6324F00F04C3F6C9739C42064679D088
:1099700044F24341C3F2357101F052FD01462860C3
:10998000304601F04DFD44F24341C3F2357101F020
:1099900047FD01236860184609B0BDE8F08F4FF419
:1099A0007863C4F249339C4277DDB4F1FF4F52DA59
:1099B000E715863FA4EBC754204602F001F801F0FA
:1099C000E5FD034601462046059301F029FD4FF0D1
:1099D000874101F02FFE804601F0F2FF01F0D6FD35
:1099E000014604464046069401F01AFD4FF08741B7
:1099F00001F020FE0021079001F0B0FF032338B1F1
:109A00002046002101F0AAFF002814BF01230223F1
:109A100095493A46022405A800940191294600F090
:109A200057FA002EBDBF29686A6843420346BCBF8F
:109A300001F1004102F100421846BCBF29606A6092
:109A400009B0BDE8F08F0023002128606960184646
:109A500009B0BDE8F08F014601F0E2FC0023686028
:109A60002860F4E74FF48841C3F2357101F0D8FC67
:109A70004AF20831C2F68561044601F0D1FC014684
:109A80002860204601F0CCFC4AF20831C2F685611C
:109A900001F0C6FC01236860D9E700F01DFF4FF616
:109AA0008411C3F62271074601F0C4FD4FF07C51CA
:109AB00001F0B8FC01F084FF814601F067FD4FF42E
:109AC0007861C3F6C971824601F0B4FD014638469B
:109AD00001F0A6FC44F24341C3F2357107465046FB
:109AE00001F0A8FDB9F11F0F8046384626DC4DF67F
:109AF000383309F1FF31C0F6020324F0FF0253F8B6
:109B000021309A421AD0414601F08AFC8346C5F8BA
:109B100000B05946384601F083FC414601F080FC14
:109B2000002EA8BF4B46686091DA0BF1004300F1AC
:109B300000402B60C9F10003686088E74146E415E6
:109B400001F06EFCC0F3C7528346A21A082ADEDD7C
:109B50004FF488415046C3F2357101F06BFD8046E9
:109B60003846414601F05CFC03903846039901F009
:109B700057FC414601F054FC4AF20831C2F68561B7
:109B80000746504601F056FD394601F049FC804633
:109B90000398414601F044FCC0F3C7528346A41A1F
:109BA000192C3EDC2860039FB3E701F03BFC4FF427
:109BB0007D6324F00F04C3F6C9739C42064614D09B
:109BC00044F24341C3F2357101F02CFC0146286098
:109BD000304601F025FC44F24341C3F2357101F0F7
:109BE00021FC4FF0FF33686031E74FF48841C3F246
:109BF000357101F017FC4AF20831C2F6856104465E
:109C000001F010FC01462860204601F009FC4AF2F0
:109C10000831C2F6856101F005FC4FF0FF33686042
:109C200015E74FF423415046C2F6856101F002FD6D
:109C300004460398214601F0F3FB07460398394692
:109C400001F0EEFB214601F0EBFB43F23211C2F2D0
:109C50008D410446504601F0EDFC214601F0E0FB49
:109C6000804638464FE700BFB8DB020820F00042CC
:109C7000B2F1FF4FF8B5044603463BD2002A38D074
:109C800000283EDBB2F5000F4FEAE05009D214F491
:109C900000023DD15B0001321902FBD5C2F1010285
:109CA0001044C3F316037F3843F40003C2074FF098
:109CB00000074FEA600048BF5B003E4619244FF0A2
:109CC00080725B00B5189D42DEBFC5EB0303AE1882
:109CD000BF18013C4FEA43034FEA5202F2D113B1DD
:109CE00007F001031F447F1007F17C5707EBC050BA
:109CF000F8BDF8BD014601F09DFC214601F092FB44
:109D0000F8BD014601F08CFB014601F047FDF8BDAE
:109D100001221044C5E700BF2DE9F84320F00046BA
:109D2000B6F1485F05460F465BDA01F049FE0028B0
:109D300000F0CA802946284601F07CFC4DF24E71A5
:109D4000CAF64751044601F075FC47F2F641C3F2EA
:109D50000F1101F067FB214601F06CFC4FF27C21F2
:109D6000C3F2934101F05CFB214601F063FC40F635
:109D70000151C3F2D07101F055FB214601F05AFCAC
:109D800040F66131C3F6B62101F04AFB214601F0ED
:109D900051FC4AF6AB21C3F62A5101F043FB2146A0
:109DA00001F048FC804620464FF07C5101F042FC17
:109DB00041460646204601F03DFC39460446284609
:109DC00001F038FC0146204601F02AFB01463046EE
:109DD00001F026FB01464FF07E5001F021FBBDE86B
:109DE000F883014601F026FC4DF24E71CAF6475148
:109DF000044601F01FFC47F2F641C3F20F1101F0D7
:109E000011FB214601F016FC4FF27C21C3F2934175
:109E100001F006FB214601F00DFC40F60151C3F2B2
:109E2000D07101F0FFFA214601F004FC40F66131E7
:109E3000C3F6B62101F0F4FA214601F0FBFB4AF625
:109E4000AB21C3F62A5101F0EDFA214601F0F2FBF5
:109E500049F69913C3F699639E428046A3DD002319
:109E6000C3F648739E4227DC06F17F464FF07E50D2
:109E7000314601F0D5FA814620464FF07C5101F081
:109E8000D9FB314601F0CCFA41460646204601F0A6
:109E9000D1FB39460446284601F0CCFB014620465A
:109EA00001F0BEFA0146304601F0BAFA01464846D2
:109EB00001F0B6FABDE8F8834FF000090026C3F6BA
:109EC0003879C3F69066D7E74FF07E50BDE8F88347
:109ED0002DE9F04F161DD51EDFB048BF35464DF6B3
:109EE000D064C0F602040B93ED10013B25EAE57542
:109EF0000C95689D06460293029854F825400C9DE7
:109F000009912F1A0894EB43051902EBC30306933A
:109F100016D4699A3D4401354FF0000802EB8709D9
:109F200022AC002FB8BF002003DB59F8080001F075
:109F30002DFB013744F80800AF4208F10408F0D1C6
:109F4000089A002ABCBF0B9B9C0028DB089A22AF12
:109F50000B9B002502F101089C004FEA880827446A
:109F6000029A002AC0F2FA8105EB070B4FF00009B4
:109F70004FF0000A56F8090009F104095BF8041DC6
:109F800001F058FB0146504601F04CFAA1458246CB
:109F9000F0D14AA840F805A004354545E0D1DDF8E8
:109FA00020900EAD05EB89050D954FEA89030793C7
:109FB000079D5EABB9F1000F2B4453F850AC23DD85
:109FC0000DF134084AAF2F44A8440DAD4FF06E5147
:109FD000504601F02FFB01F0F3FC01F0D7FA4FF0EF
:109FE0008741834601F026FB0146504601F018FAEE
:109FF00001F0E6FC594645F8040F57F8040D01F04E
:10A0000011FA45458246E1D15046069900F0CEFC52
:10A010004FF07851054601F00DFB00F061FC4FF068
:10A02000824101F007FB0146284601F0F9F9054697
:10A0300001F0C6FC824601F0A9FA0146284601F06B
:10A04000EFF9069A002A804640F36481069B09F1E5
:10A05000FF320EADC3F10801C3F1070055F82230FD
:10A0600043FA01F5AA4405FA01F15B1A0EA943FA75
:10A0700000F741F82230002F32DDB9F1000F0AF16C
:10A08000010A40F36981079D0EAB1946294400255A
:10A0900007E022B10125C2F5807243F8042C8B42FF
:10A0A0000BD053F8042B002DF3D08B42C2F1FF02EA
:10A0B0004FF0010543F8042CF3D1069A002A0DDD78
:10A0C000012A00F02F81022A08D109F1FF330EA9DD
:10A0D00051F8232002F03F0241F82320022F6ED0D6
:10A0E0004046002101F03AFC002800F08180089AE7
:10A0F00009F1FF35AA420DDC079A0EAB0D98134407
:10A10000002253F8041D834242EA0102F9D1002AD9
:10A1100040F0DF81089B0EAD5A1E55F82230002B0F
:10A1200040F0EC8105EB8202012352F8041D01335B
:10A130000029FAD04B440A9399453DDA0B9B22AD96
:10A140000A9A4AAF4B44DDF83080C9EB020A05EBAE
:10A150008305C8442A1D0395699B4FEA8A0A079D17
:10A1600003EB880805922F440025CDF810A058F87D
:10A17000040F4FF0000B01F009FA029B039A002B29
:10A18000505113DBDDF814A04FF00009AA4456F833
:10A19000090009F104095AF8041D01F04BFA0146BF
:10A1A000584601F03FF9A1458346F0D1049A0435A1
:10A1B00047F804BF9542DAD1DDF82890F5E641462C
:10A1C0004FF07E5001F02CF98046002D88D0069982
:10A1D0004FF07E5000F0EAFB0146404601F020F9C6
:10A1E00000218046404601F0B9FB00287FF47FAF94
:10A1F000069B4046CDF808A0594200F0D7FB4FF02F
:10A200008741044601F0C8FB002800F083814FF02D
:10A210006E51204601F00EFA09F1010501F0D0FB64
:10A22000069B0833069301F0B1F94FF087410646CB
:10A2300001F000FA0146204601F0F2F801F0C0FBFF
:10A240000EA941F82900304601F0BAFB0EAA42F8E7
:10A25000250006994FF07E5000F0A8FB002D044623
:10A260004EDB6E1C4FEA85080DF1380A4AA8C6EB92
:10A270008679C2444FF0000B80444FEA89095AF8AE
:10A280000B0001F083F9214601F0D4F94FF06E5133
:10A2900048F80B00204601F0CDF9ABF1040BCB459B
:10A2A0000446ECD1DFF880920024DDF820A0B3460C
:10A2B00003950497BAF1000FB8BF002714DB0026FE
:10A2C0000027354601E0A5420EDC58F8061001359E
:10A2D00059F80600043601F0ADF90146384601F0A0
:10A2E000A1F8AA450746EEDA5EA9A8F1040801EB39
:10A2F00084030134A34543F8A07CDBD1039D049F74
:10A30000689A032A00F29880DFE812F0CB009C00E4
:10A310009C00320010D109F1FF330EAA52F82370CD
:10A320003F12A8E609F1FF330EA850F8232002F0EF
:10A330007F0240F82320D1E64FF07C5101F02CFB46
:10A34000074600283FF4CCAEB9F1000F4FF00207EA
:10A350000AF1010A3FF797AE0025AEE64AA84FF092
:10A36000000A40F805A0043545457FF4F9AD16E62E
:10A37000002D40F3C5804FEA850B05F1FF3A5EAB37
:10A3800036AE5B4406EB8A0A35AA544653F8A08CD5
:10A390005B46BB462F4654F8045941460192009350
:10A3A000284601F03FF881462846494601F038F832
:10A3B000414601F037F8019AC4F80490C846944227
:10A3C000009BA060E7D13D465F46012D9B4640F3D0
:10A3D00097805EAB9B445BF8A04C5AF804992146E9
:10A3E000484601F01FF880464846414601F018F8FB
:10A3F000214601F017F85645CAF804804446CAF8C9
:10A400000800EAD1013506F10804002006EB8506B4
:10A4100056F8041D01F006F8A642F9D1002F72D0BB
:10A42000099E00F10040369A379B02F10042B0606D
:10A4300003F1004332607360029A02F007005FB0DC
:10A44000BDE8F08F002DB8BF00200ADB6C1C36AED3
:10A45000002006EB840454F8041D00F0E3FFB4422E
:10A46000F9D100F1004307B90346099E0146369829
:10A47000336000F0D5FF002D08DD36AC04EB850518
:10A4800054F8041F00F0CEFFAC42F9D10FB100F137
:10A490000040099A5060029A02F007005FB0BDE8E0
:10A4A000F08F002D3EDB6C1C36AE002006EB8404E2
:10A4B00054F8041D00F0B6FFB442F9D10FB100F119
:10A4C0000040099D029A286002F007005FB0BDE8D5
:10A4D000F08F0EAE069ACDF808A056F82530083A4F
:10A4E0000692002B7FF4B5AE06EB850353F8041DEE
:10A4F000013D083A0029F9D00692AAE6012319E69F
:10A500000020002F8CD1099D369A379BA8602A60C5
:10A510006B6091E720464D4601F052FA0EAB43F8CE
:10A52000290096E60020C9E7DCDE02082DE9F843A1
:10A5300020F00043B3F1485F04460F46904603DA2B
:10A5400001F03EFA00286CD02146204601F072F856
:10A550002146054601F06EF84CF6D311C2F62E7175
:10A560000646284601F066F842F63471C3F2D72158
:10A5700000F056FF294601F05DF84EF61B71C3F25C
:10A58000386100F04FFF294601F054F840F60151C0
:10A59000C3F6501100F044FF294601F04BF848F68D
:10A5A0008901C3F6084100F03DFF8146B8F1000F74
:10A5B00025D038464FF07C5101F03CF849468046A2
:10A5C000304601F037F80146404600F029FF2946A1
:10A5D00001F030F8394600F023FF4AF6AB21C3F60C
:10A5E0002A610546304601F025F80146284600F06C
:10A5F00019FF0146204600F013FFBDE8F8834946E5
:10A60000284601F017F84AF6AB21C3F62A6100F09C
:10A6100007FF314601F00EF8214600F003FFBDE8C8
:10A62000F8832046BDE8F88321F00041704700BF61
:10A6300041F0004101F58010C00F704750EA01035E
:10A6400001D102207047D0F1010338BF0023B1F1DE
:10A65000004F08BF0028F4D021F000414FF6FF72F0
:10A66000A1F58010C7F6DF72904201D80420704730
:10A67000B1F5801F01D2032070470020C7F6F070AB
:10A68000814214BF002003F0010070470020704792
:10A6900000210020C7F6F871704700BFC1F30A5CC3
:10A6A00002462DE9F043ACF2FF37132F83B00B467F
:10A6B000894680464FEAD17637DC002F53DB4FF6D0
:10A6C000FF71C0F20F01394101EA0300104331D09C
:10A6D000490801EA030858EA02080DD04FF480291E
:10A6E00023EA0101132F0CBF4FF000484FF0000880
:10A6F00049FA07F741EA07094DF608714B46C0F6DB
:10A700000201424601EBC606D6E90045204629462D
:10A7100000F0BEF922462B46CDE90001DDE900013B
:10A7200000F0B4F903B0BDE8F083332F07DDB7F5CF
:10A73000806F40D01046194603B0BDE8F0834FF05B
:10A74000FF31ACF2134C21FA0CF10142F2D049086E
:10A7500001421FBF4FF0804820EA010148FA0CFC7B
:10A7600041EA0C08C8E721F000410143E2D0C3F3FD
:10A7700013004DF608711043C0F60201444201EB8C
:10A78000C60120435F0CD1E90045000B00F4002016
:10A79000294640EA4743204600F07AF92B462246F4
:10A7A000CDE90001DDE9000100F070F921F000437E
:10A7B00043EAC671C0E700F06BF9BDE70000000096
:10A7C000C1F30A532DE9F041904606460F460A466A
:10A7D00043BB21F00043034339D000230022C4F2DD
:10A7E000503300F007FB43F6B043CFF6FF739845B4
:10A7F00006460F463BDBC1F30A530A46363B40F29E
:10A80000FE7143448B4216DD32463B462EA1D1E910
:10A81000000100F027F92CA3D3E9002300F0EAFAA5
:10A82000BDE8F08140F2FF74A34227D0434440F2D8
:10A83000FE718B42E8DC002B0BDD22F0FF4230463C
:10A8400022F4E00242EA03573946BDE8F081BDE850
:10A85000F08113F1350F17DA4CF250333246984538
:10A860003B4622DC1AA1D1E9000100F0FBF818A355
:10A87000D3E9002300F0BEFABDE8F08102460B46A2
:10A8800000F006F9BDE8F081363322F0FF4222F4F1
:10A89000E002304642EA035700230022C3F6904309
:10A8A000394600F0A7FABDE8F08107A1D1E900011F
:10A8B00000F0D8F804A3D3E9002300F09BFABDE828
:10A8C000F08100BFAFF300809C7500883CE4377EC8
:10A8D00059F3F8C21F6EA50120F00040704700BF79
:10A8E0002DE9F04120F000470646FD0D7F3D162D75
:10A8F0001FDC002D804627DB4FF6FF73C0F27F037D
:10A9000043FA05F707421CD04FF2CA21C7F249119A
:10A9100000F088FD002101F049F890B1002EBEBF83
:10A920004FF4000343FA05F5A84428EA0700BDE800
:10A93000F081B7F1FF4F04D3014600F073FDBDE88D
:10A94000F0813046BDE8F0814FF2CA21C7F24911CB
:10A9500000F068FD002101F029F80028F1D0002E58
:10A9600002DB0020BDE8F081002FEAD00020CBF60A
:10A970008070BDE8F08100BF30F0004001D10220BE
:10A980007047A0F50003B3F1FE4F01D204207047D9
:10A990004FF6FE73421EC0F27F039A4201D8032095
:10A9A0007047B0F1FF4358425841704738B530F016
:10A9B0000044024603460D4616D0B4F1FF4F0FD2B5
:10A9C000B4F5000F11D3E40D2C44FE2CC8BF114682
:10A9D00030DC002C19DD23F0FF4343EAC45038BDBE
:10A9E000014600F01FFD38BD38BD4FF0984100F022
:10A9F00021FE43F6B043CFF6FF739D42024612DBC1
:10AA0000C0F3C7540346193CDEE714F1160F1EDAF3
:10AA10004CF2503311469D420CDC44F26020C0F6EB
:10AA2000A25000F029F844F26021C0F6A25100F0D3
:10AA300001FE38BD4FF2CA20C7F2491000F01CF8E1
:10AA40004FF2CA21C7F2491100F0F4FD38BD04F1FC
:10AA5000190023F0FF434FF04C5143EAC05000F07F
:10AA6000E9FD38BD10B421F0004203F0004444EA8F
:10AA700002015DF8044B704701F0004120F00040F6
:10AA80000843704781F0004102E000BF83F00043BB
:10AA900030B54FEA41044FEA430594EA050F08BF79
:10AAA00090EA020F1FBF54EA000C55EA020C7FEA3D
:10AAB000645C7FEA655C00F0E2804FEA5454D4EBBA
:10AAC0005555B8BF6D420CDD2C4480EA020281EA84
:10AAD000030382EA000083EA010180EA020281EABC
:10AAE0000303362D88BF30BD11F0004F4FEA01310E
:10AAF0004FF4801C4CEA113102D0404261EB41011D
:10AB000013F0004F4FEA03334CEA133302D05242A2
:10AB100063EB430394EA050F00F0A780A4F101045E
:10AB2000D5F1200E0DDB02FA0EFC22FA05F2801898
:10AB300041F1000103FA0EF2801843FA05F359417E
:10AB40000EE0A5F120050EF1200E012A03FA0EFCFD
:10AB500028BF4CF0020C43FA05F3C01851EBE37127
:10AB600001F0004507D54FF0000EDCF1000C7EEB44
:10AB700000006EEB0101B1F5801F1BD3B1F5001F82
:10AB80000CD349085FEA30004FEA3C0C04F10104A1
:10AB90004FEA445212F5800F80F09A80BCF1004FCA
:10ABA00008BF5FEA500C50F1000041EB045141EA4C
:10ABB000050130BD5FEA4C0C404141EB010111F44D
:10ABC000801FA4F10104E9D191F0000F04BF0146F8
:10ABD0000020B1FA81F308BF2033A3F10B03B3F1D6
:10ABE00020020CDA0C3208DD02F1140CC2F10C0266
:10ABF00001FA0CF021FA02F10CE002F11402D8BFC4
:10AC0000C2F1200C01FA02F120FA0CFCDCBF41EA8F
:10AC10000C019040E41AA2BF01EB0451294330BD5E
:10AC20006FEA04041F3C1CDA0C340EDC04F114043B
:10AC3000C4F1200220FA04F001FA02F340EA030012
:10AC400021FA04F345EA030130BDC4F10C04C4F158
:10AC5000200220FA02F001FA04F340EA0300294638
:10AC600030BD21FA04F0294630BD94F0000F83F482
:10AC7000801306BF81F480110134013D4EE77FEA65
:10AC8000645C18BF7FEA655C29D094EA050F08BFB1
:10AC900090EA020F05D054EA000C04BF1946104692
:10ACA00030BD91EA030F1EBF0021002030BD5FEAD6
:10ACB000545C05D14000494128BF41F0004130BDFE
:10ACC00014F580043CBF01F5801130BD01F0004552
:10ACD00045F0FE4141F470014FF0000030BD7FEAC5
:10ACE000645C1ABF194610467FEA655C1CBF0B46C0
:10ACF000024650EA013406BF52EA033591EA030FD7
:10AD000041F4002130BD00BF90F0000F04BF0021CE
:10AD1000704730B54FF4806404F132044FF0000501
:10AD20004FF0000150E700BF90F0000F04BF00217A
:10AD3000704730B54FF4806404F1320410F00045E0
:10AD400048BF40424FF000013EE700BF42004FEADB
:10AD5000E2014FEA31014FEA02701FBF12F07F4358
:10AD600093F07F4F81F06051704792F0000F14BF55
:10AD700093F07F4F704730B54FF4607401F0004599
:10AD800021F0004120E700BF50EA010208BF7047F0
:10AD900030B54FF000050AE050EA010208BF7047E5
:10ADA00030B511F0004502D5404261EB41014FF44E
:10ADB000806404F132045FEA915C3FF4DCAE4FF052
:10ADC00003025FEADC0C18BF03325FEADC0C18BF39
:10ADD000033202EBDC02C2F1200300FA03FC20FA8A
:10ADE00002F001FA03FE40EA0E0021FA02F11444D7
:10ADF000C1E600BF70B54FF0FF0C4CF4E06C1CEAEC
:10AE000011541DBF1CEA135594EA0C0F95EA0C0F60
:10AE100000F0DEF82C4481EA030621EA4C5123EAD3
:10AE20004C5350EA013518BF52EA033541F4801102
:10AE300043F4801338D0A0FB02CE4FF00005E1FBB5
:10AE400002E506F00042E0FB03E54FF00006E1FBFF
:10AE500003569CF0000F18BF4EF0010EA4F1FF0442
:10AE6000B6F5007F64F5407404D25FEA4E0E6D4182
:10AE700046EB060642EAC62141EA55514FEAC52093
:10AE800040EA5E504FEACE2EB4F1FD0C88BFBCF50F
:10AE9000E06F1ED8BEF1004F08BF5FEA500E50F1C0
:10AEA000000041EB045170BD06F0004646EA010186
:10AEB00040EA020081EA0301B4EB5C04C2BFD4EBB8
:10AEC0000C0541EA045170BD41F480114FF0000EB1
:10AED000013C00F3AB8014F1360FDEBF002001F01F
:10AEE000004170BDC4F10004203C35DA0C341BDC99
:10AEF00004F11404C4F1200500FA05F320FA04F06B
:10AF000001FA05F240EA020001F0004221F000419E
:10AF100010EBD37021FA04F642EB06015EEA430E11
:10AF200008BF20EAD37070BDC4F10C04C4F1200541
:10AF300000FA04F320FA05F001FA04F240EA0200F4
:10AF400001F0004110EBD37041F100015EEA430EC5
:10AF500008BF20EAD37070BDC4F1200500FA05F2E5
:10AF60004EEA020E20FA04F301FA05F243EA020364
:10AF700021FA04F001F0004121FA04F220EA020073
:10AF800000EBD3705EEA430E08BF20EAD37070BDB9
:10AF900094F0000F0FD101F00046400041EB010199
:10AFA00011F4801F08BF013CF7D041EA060195F07B
:10AFB000000F18BF704703F00046520043EB030335
:10AFC00013F4801F08BF013DF7D043EA0603704722
:10AFD00094EA0C0F0CEA135518BF95EA0C0F0CD02D
:10AFE00050EA410618BF52EA4306D1D181EA030173
:10AFF00001F000414FF0000070BD50EA410606BF6D
:10B000001046194652EA430619D094EA0C0F02D1B1
:10B0100050EA013613D195EA0C0F05D152EA0336F6
:10B020001CBF104619460AD181EA030101F0004114
:10B0300041F0FE4141F470014FF0000070BD41F05D
:10B04000FE4141F4780170BD70B54FF0FF0C4CF437
:10B05000E06C1CEA11541DBF1CEA135594EA0C0F56
:10B0600095EA0C0F00F0A7F8A4EB050481EA030EA3
:10B0700052EA03354FEA013100F088804FEA03338A
:10B080004FF0805545EA131343EA12634FEA022258
:10B0900045EA111545EA10654FEA00260EF0004119
:10B0A0009D4208BF964244F1FD0404F5407402D26B
:10B0B0005B084FEA3202B61A65EB03055B084FEAFC
:10B0C00032024FF480104FF4002CB6EB020E75EBF9
:10B0D000030E22BFB61A754640EA0C005B084FEA21
:10B0E0003202B6EB020E75EB030E22BFB61A75469E
:10B0F00040EA5C005B084FEA3202B6EB020E75EBE9
:10B10000030E22BFB61A754640EA9C005B084FEA60
:10B110003202B6EB020E75EB030E22BFB61A75466D
:10B1200040EADC0055EA060E18D04FEA051545EA5C
:10B1300016754FEA06164FEAC30343EA52734FEA05
:10B14000C2025FEA1C1CC0D111F4801F0BD141EA7E
:10B1500000014FF000004FF0004CB6E711F4801FE3
:10B1600004BF01430020B4F1FD0C88BFBCF5E06FC3
:10B170003FF6AFAEB5EB030C04BFB6EB020C5FEAD3
:10B18000500C50F1000041EB045170BD0EF0004E28
:10B190004EEA113114EB5C04C2BFD4EB0C0541EA5A
:10B1A000045170BD41F480114FF0000E013C90E657
:10B1B00045EA060E8DE60CEA135594EA0C0F08BF1B
:10B1C00095EA0C0F3FF43BAF94EA0C0F0AD150EA1A
:10B1D00001347FF434AF95EA0C0F7FF425AF1046AD
:10B1E00019462CE795EA0C0F06D152EA03353FF4D5
:10B1F000FDAE1046194622E750EA410618BF52EA52
:10B2000043067FF4C5AE50EA41047FF40DAF52EA25
:10B2100043057FF4EBAE12E74FF0FF3C06E000BFC2
:10B220004FF0010C02E000BF4FF0010C4DF804CDCF
:10B230004FEA410C7FEA6C5C4FEA430C18BF7FEA8F
:10B240006C5C1BD001B050EA410C0CBF52EA430CBD
:10B2500091EA030F02BF90EA020F0020704710F13D
:10B26000000F91EA030F58BF994208BF90422CBFCC
:10B27000D8176FEAE37040F0010070474FEA410CC5
:10B280007FEA6C5C02D150EA013C07D14FEA430CE3
:10B290007FEA6C5CD6D152EA033CD3D05DF8040B54
:10B2A000704700BF8446104662468C461946634686
:10B2B00000E000BF01B5FFF7B7FF002848BF10F15D
:10B2C000000F01BD4DF808EDFFF7F4FF0CBF0120A2
:10B2D00000205DF808FB00BF4DF808EDFFF7EAFF1E
:10B2E00034BF012000205DF808FB00BF4DF808EDD9
:10B2F000FFF7E0FF94BF012000205DF808FB00BFCE
:10B300004DF808EDFFF7CEFF94BF012000205DF857
:10B3100008FB00BF4DF808EDFFF7C4FF34BF012064
:10B3200000205DF808FB00BF4FEA410212F5001251
:10B3300015D211D56FF47873B3EB625212D94FEA7C
:10B34000C12343F0004343EA505311F0004F23FA66
:10B3500002F018BF404270474FF00000704750EABB
:10B36000013005D111F0004008BF6FF00040704778
:10B370004FF00000704700BF4FEA4102B2F1E043D6
:10B3800024BFB3F5001CDCF1FE5C0DD901F0004CCC
:10B390004FEAC0024CEA5070B2F1004F40EB83001C
:10B3A00008BF20F00100704711F0804F21D113F148
:10B3B0003872BCBF01F00040704741F480114FEA81
:10B3C0005252C2F11802C2F1200C10FA0CF320FA0A
:10B3D00002F018BF40F001004FEAC1234FEAD32327
:10B3E00003FA0CFC40EA0C0023FA02F34FEA430391
:10B3F000CCE77FEA625307D150EA01331EBF4FF01A
:10B40000FE4040F44000704701F0004040F0FE4034
:10B4100040F40000704700BF80F0004002E000BF31
:10B4200081F0004142001FBF5FEA410392EA030F2F
:10B430007FEA226C7FEA236C6AD04FEA1262D2EB79
:10B440001363C1BFD218414048404140B8BF5B427E
:10B45000192B88BF704710F0004F40F4000020F017
:10B460007F4018BF404211F0004F41F4000121F02D
:10B470007F4118BF494292EA030F3FD0A2F1010277
:10B4800041FA03FC10EB0C00C3F1200301FA03F1B5
:10B4900000F0004302D5494260EB4000B0F5000FD8
:10B4A00013D3B0F1807F06D340084FEA310102F197
:10B4B0000102FE2A51D2B1F1004F40EBC25008BF49
:10B4C00020F0010040EA03007047490040EB000013
:10B4D00010F4000FA2F10102EDD1B0FA80FCACF142
:10B4E000080CB2EB0C0200FA0CF0AABF00EBC25041
:10B4F00052421843BCBFD0401843704792F0000F2F
:10B5000081F4000106BF80F400000132013BB5E781
:10B510004FEA41037FEA226C18BF7FEA236C21D0F7
:10B5200092EA030F04D092F0000F08BF084670475C
:10B5300090EA010F1CBF0020704712F07F4F04D12A
:10B54000400028BF40F00040704712F100723CBF3D
:10B5500000F50000704700F0004343F0FE4040F467
:10B56000000070477FEA226216BF08467FEA236325
:10B570000146420206BF5FEA412390EA010F40F410
:10B58000800070474FF0000304E000BF10F000435C
:10B5900048BF40425FEA000C08BF704743F0964343
:10B5A00001464FF000001CE050EA010208BF70475E
:10B5B0004FF000030AE000BF50EA010208BF7047E5
:10B5C00011F0004302D5404261EB41015FEA010CFA
:10B5D00002BF84460146002043F0B64308BFA3F1F2
:10B5E0008053A3F50003BCFA8CF2083AA3EBC253D4
:10B5F00010DB01FA02FC634400FA02FCC2F12002F3
:10B60000BCF1004F20FA02F243EB020008BF20F029
:10B610000100704702F1200201FA02FCC2F120028F
:10B6200050EA4C0021FA02F243EB020008BF20EA84
:10B63000DC7070474FF0FF0C1CEAD0521EBF1CEAB2
:10B64000D15392EA0C0F93EA0C0F6FD01A4480EAA0
:10B65000010C400218BF5FEA41211ED04FF0006389
:10B6600043EA501043EA5111A0FB01310CF00040B5
:10B67000B1F5000F3EBF490041EAD3715B0040EADB
:10B68000010062F17F02FD2A1DD8B3F1004F40EBAB
:10B69000C25008BF20F00100704790F0000F0CF07E
:10B6A000004C08BF49024CEA502040EA51207F3A42
:10B6B000C2BFD2F1FF0340EAC250704740F400001D
:10B6C0004FF00003013A5DDC12F1190FDCBF00F00E
:10B6D00000407047C2F10002410021FA02F1C2F1BC
:10B6E000200200FA02FC5FEA310040F1000053EA58
:10B6F0004C0308BF20EADC70704792F0000F00F0A6
:10B70000004C02BF400010F4000F013AF9D040EAAB
:10B710000C0093F0000F01F0004C02BF490011F43F
:10B72000000F013BF9D041EA0C018FE70CEAD1533D
:10B7300092EA0C0F18BF93EA0C0F0AD030F0004CBD
:10B7400018BF31F0004CD8D180EA010000F0004071
:10B75000704790F0000F17BF90F0004F084691F02F
:10B76000000F91F0004F14D092EA0C0F01D1420269
:10B770000FD193EA0C0F03D14B0218BF084608D132
:10B7800080EA010000F0004040F0FE4040F400007C
:10B79000704740F0FE4040F4400070474FF0FF0C0F
:10B7A0001CEAD0521EBF1CEAD15392EA0C0F93EA56
:10B7B0000C0F69D0A2EB030280EA010C49024FEAA8
:10B7C000402037D04FF0805343EA111143EA101361
:10B7D0000CF000408B4238BF5B0042F17D024FF419
:10B7E000000C8B4224BF5B1A40EA0C00B3EB510FF4
:10B7F00024BFA3EB510340EA5C00B3EB910F24BFDD
:10B80000A3EB910340EA9C00B3EBD10F24BFA3EB61
:10B81000D10340EADC001B0118BF5FEA1C1CE0D129
:10B82000FD2A3FF650AF8B4240EBC25008BF20F0DC
:10B83000010070470CF0004C4CEA50207F32C2BF30
:10B84000D2F1FF0340EAC250704740F400004FF0CD
:10B850000003013A37E792F0000F00F0004C02BFFE
:10B86000400010F4000F013AF9D040EA0C0093F0C8
:10B87000000F01F0004C02BF490011F4000F013B22
:10B88000F9D041EA0C0195E70CEAD15392EA0C0F8A
:10B8900008D142027FF47DAF93EA0C0F7FF470AFC2
:10B8A000084676E793EA0C0F04D14B023FF44CAF05
:10B8B00008466EE730F0004C18BF31F0004CCAD19A
:10B8C00030F000427FF45CAF31F000437FF43CAFD6
:10B8D0005FE700BF4FF0FF3C06E000BF4FF0010CF8
:10B8E00002E000BF4FF0010C4DF804CD4FEA4002DA
:10B8F0004FEA41037FEA226C18BF7FEA236C11D024
:10B9000001B052EA530C18BF90EA010F58BFB2EBD6
:10B91000030088BFC81738BF6FEAE17018BF40F056
:10B92000010070477FEA226C02D15FEA402C05D10A
:10B930007FEA236CE4D15FEA412CE1D05DF8040B8F
:10B94000704700BF844608466146FFE70FB5FFF722
:10B95000C9FF002848BF10F1000F0FBD4DF808EDDA
:10B96000FFF7F4FF0CBF012000205DF808FB00BFCB
:10B970004DF808EDFFF7EAFF34BF012000205DF825
:10B9800008FB00BF4DF808EDFFF7E0FF94BF012072
:10B9900000205DF808FB00BF4DF808EDFFF7D2FF6F
:10B9A00094BF012000205DF808FB00BF4DF808EDB2
:10B9B000FFF7C8FF34BF012000205DF808FB00BF7F
:10B9C0004FEA4002B2F1FE4F0FD34FF09E03B3EBAC
:10B9D00012620DD94FEA002343F0004310F0004FEC
:10B9E00023FA02F018BF404270474FF00000704742
:10B9F00012F1610F01D1420205D110F0004008BFE1
:10BA00006FF0004070474FF00000704740F2D803DD
:10BA1000C2F20003186870470F2AF0B445D940EA13
:10BA200001039B0745D1A2F110070C4603463F09CD
:10BA300000EB0716103625681033103443F8105CFD
:10BA400054F80C5C43F80C5C54F8085C43F8085C50
:10BA500054F8045C43F8045CB342ECD17B1C02F064
:10BA60000F0CBCF1030F4FEA03131944034422D90E
:10BA70000E461D46644656F8047B043C032C45F8EC
:10BA8000047BF8D8ACF1040402F0030224F00304B0
:10BA900004342344214432B10A4411F8014B914249
:10BAA00003F8014BF9D1F0BC70470346002AF3D1EB
:10BAB000F9E70346F0E76246002AEDD1F3E700BF5D
:10BAC0008307F0B448D0541E002A43D0CDB20346B9
:10BAD00002E0002C3ED0144603F8015B13F0030F84
:10BAE00004F1FF32F5D1032C2DD9CDB20F2C45EA4C
:10BAF000052545EA054518D9A4F1100703F11006FC
:10BB00001A463F0906EB07161560103242F80C5C26
:10BB100042F8085C42F8045CB242F5D104F00F042C
:10BB20000137032C03EB07130DD91E462246043AB6
:10BB300046F8045B032AFAD8221F04F0030422F01B
:10BB40000302043213442CB1C9B21C4403F8011B94
:10BB5000A342FBD1F0BC704714460346C3E700BFC5
:10BB600008B4F0B5141E0746B8BF8B239CB0BCBF09
:10BB70004FF0FF303B601FDB22AD219A02914FF462
:10BB8000027306913846ADF8143002A92B4614BF53
:10BB900004F1FF3626460195049607964FF6FF7688
:10BBA000ADF8166000F018F9431CBCBF8B223A6058
:10BBB00014B1029A002313701CB0BDE8F04001B02C
:10BBC000704700BF0CB440F2D803C2F20003F0B5D6
:10BBD0000C1E1F689DB0BEBF8B234FF0FF303B6033
:10BBE0001FDB23AD02904FF402730690ADF81430C2
:10BBF00038462B46229A02A914BF04F1FF36264686
:10BC00000195049607964FF6FF76ADF8166000F0A2
:10BC1000E3F8421CBCBF8B233B6014B1029B0022A3
:10BC20001A701DB0BDE8F04002B070470CB40B466E
:10BC300070B59CB020AC02A902936FF0004554F897
:10BC4000042B4FF4027606932346ADF8146001945A
:10BC50004FF6FF7404950795ADF8164000F0BCF858
:10BC6000029B00221A701CB0BDE8704002B0704701
:10BC70000EB440F2D803F0B59CB021ACC2F2000380
:10BC8000064602A954F8042B6FF0004518684FF4DB
:10BC900002772346029606964FF6FF760194ADF89A
:10BCA000147004950795ADF8166000F095F8029BA6
:10BCB00000221A701CB0BDE8F04003B0704700BF0E
:10BCC00020F0030110F00300C0F1000051F8043B24
:10BCD00000F1040C4FEACC0C6FF000021CBF22FAFA
:10BCE0000CF213434FF0010C4CEA0C2C4CEA0C4CB8
:10BCF000A3EB0C0222EA030212EACC1204BF51F8B1
:10BD0000043B0430F4D013F0FF0F1FBF013013F4D5
:10BD10007F4F013013F47F0F18BF0130704700BF11
:10BD2000F0B4002A4BD040EA010313F003032DD1F5
:10BD3000032A2BD904680D68AC4227D1043A3ED0BF
:10BD4000A4F1013525EA040414F0803F3DD10C46EE
:10BD500005460EE06B68054666680C46A3F10137A0
:10BD6000B34227EA030711D1043A28D017F0803FE5
:10BD700028D1032A00F1040001F10401EAD8561E7B
:10BD80002AB928792279801AF0BC7047561E0378A8
:10BD90000A7893421BD1E6B1BBB101368B1C044635
:10BDA000314405E08B4203F101030BD00028EBD0B6
:10BDB00014F8010F13F8012C9042F3D0E3E710467A
:10BDC000F0BC70470020F0BC70471846DCE718460E
:10BDD000D9E73046D8E700BF2DE9F04FC9B091460A
:10BDE00014930B910E9002F019FC00681A90FFF763
:10BDF00067FF0B9CA3891D90180603D52369002BB0
:10BE000001F079804DF6187538ACC0F6020515952D
:10BE10000DF1DF050895159D38AF09944EF2904459
:10BE200005F11006089D0023C0F602041193179433
:10BE30007C1B1B931C9319931E93129321942D9397
:10BE40002C932B9799F80030252B18BF002B00F06E
:10BE5000B38009F10102144601322378252B18BF63
:10BE6000002BF8D1B4EB09050FD02C9B2D9A013390
:10BE7000C7F80090072B7D602A442C932D92D8BFE1
:10BE800008377FDC1298284412902378002B00F0AA
:10BE9000818000238DF88F301A4613930A9304F1A2
:10BEA000010963784FF0FF340C9409F10109A3F103
:10BEB0002001582900F20A84DFE811F08E030804FB
:10BEC0000804950308040804080408040804080486
:10BED0009C03480308045D0035020804EF03F603E1
:10BEE000F603F603F603F603F603F603F603F6038A
:10BEF00008040804080408040804080408040804E2
:10BF0000080408046E029002080490020804080461
:10BF100008040804CD0208040804D4020804080434
:10BF2000080408040804550208040804BC030804B3
:10BF300008040804080408040804080408040804A1
:10BF40000804A803D7039002900290028703D70346
:10BF5000080408044C0308045E0324027003F00282
:10BF60000804F70208048000080408042003139C56
:10BF70001493644213940A9D45F004050A9599F8B8
:10BF8000003092E70E982BAA0B9903F03BFC40B9C6
:10BF900038AF77E72D9B23B10E982BAA0B9903F0AE
:10BFA00031FC0B9C1298A38913F0400F18BF4FF07F
:10BFB000FF3049B0BDE8F08F4C4666E70A9C169307
:10BFC000A30640F1D981149D0123EA1D22F0070246
:10BFD00002F108041494D2E900454FF0000A8DF8EC
:10BFE0008FA00C9800280C98A2BF0A9921F080011C
:10BFF0000A9154EA05020CBF00220122002818BF52
:10C0000042F00102002A00F0E583012B00F00985CF
:10C01000022B0DF1DF0240F05981DDF864C004F01D
:10C020000F01230943EA057328091CF801101C4677
:10C030000546904654EA050002F1FF3288F80010E8
:10C04000EDD1099BC8EB030310930C9C109DA542F6
:10C05000B8BF254600240D951894BAF1000F02D000
:10C060000D9D01350D950A9B13F002030F931EBF22
:10C070000D9C02340D940A9C14F0840540F0468314
:10C08000139C0D98C0EB040BBBF1000F40F33E83F3
:10C09000BBF1100F4DF6187A2D99DCBFC0F6020ADD
:10C0A0002C9A32DDC0F6020ACDF87C802095D84665
:10C0B0002C9AD3461024CA46159DDDF82C9004E036
:10C0C000A8F11008B8F1100F19DD01321031072A5C
:10C0D0003D607C6007F108072C922D91F0DD0E98F1
:10C0E00049462BAA38AF03F08DFB00287FF459AFE7
:10C0F000A8F110082D99B8F1100F2C9AE5DCD14663
:10C10000209DDA46C346DDF87C8001320BEB01044A
:10C11000072A2C922D9487E8000C00F3EC829DF8FE
:10C120008FA00837BAF1000F0ED02C9B0DF18F02B3
:10C1300001343A6001330122072B7A602D94D8BF75
:10C1400008372C9300F302840F9B6BB12C9B24AA1D
:10C1500002343A6001330222072B7A602D94D8BF53
:10C1600008372C9300F3FE83802D00F046830C9D4E
:10C17000109BC3EB050ABAF1000F43DDBAF1100FB3
:10C180002C9BDCBF944D0F9527DD9348224610254C
:10C19000DDF838B00B9C0F9004E0AAF1100ABAF158
:10C1A000100F19DD01331032072B3E607D6007F15F
:10C1B00008072C932D92F0DD584621462BAA38AF64
:10C1C00003F020FB00287FF4ECAEAAF1100A2D9AB0
:10C1D000BAF1100F2C9BE5DC144601330F9D072BA1
:10C1E00054442C9387E82004D8BF08372D9409DDE8
:10C1F0000E982BAA0B9903F005FB00287FF4D1AE13
:10C200002D9C38AF0A9DEB0500F182822C9B109D7E
:10C210000133C7F80080072B2C447D602D942C93AC
:10C2200000F37A8308370A9D6B0740D513980D9960
:10C23000451A002D3BDD102D4DF6187A2C9BC0F6CB
:10C24000020A22DD22464FF01008DDF838B0159CB6
:10C2500002E0103D102D17DD01331032072B87E867
:10C2600010012C9307F108072D92F2DD58460B9927
:10C270002BAA38AF03F0C6FA00287FF492AE103D27
:10C280002D9A102D2C9BE7DC144601332C44072BF0
:10C290002C932D94C7F800A07D6008DD0E982BAA82
:10C2A0000B9903F0AFFA00287FF47BAE2D9C129D12
:10C2B0000D9913988142ACBF6D182D181295002C62
:10C2C00040F03583002338AF2C93BBE5E308E90841
:10C2D00043EA457390460D4604F007021C4602F1FE
:10C2E000300354EA050108F1FF3288F80030EDD13F
:10C2F0000A9C4146E00700F1F584099DC8EB05055D
:10C300001095A2E60A9D169315F0200300F0B48064
:10C31000149C0023E21D22F0070202F10805149587
:10C32000D2E9004559E699F8003009F101042A2BB9
:10C3300000F09187A3F13001092982BFA1460024B2
:10C340000C943FF6B4AD002000EB800014F8013BE4
:10C3500001EB4000A3F130010929F5D940EAE07072
:10C36000A1460C90A3E50A9D169345F010050A9589
:10C370000A9CA3063FF527AE0A9DED0600F1C48393
:10C380000A9C640640F1C083149800250123043000
:10C3900030F8044C149020E60A9C169344F01004E4
:10C3A0000A940A9D8DF88F20A90640F16581149C9E
:10C3B000E31D23F0070303F108051495D3E90023D7
:10C3C00014461D46002A73F10000C0F2BB839DF89D
:10C3D0008FA0012305E600BF28DF02080A9C169300
:10C3E00025078DF88F2040F1AB84149DEB1D23F0C1
:10C3F000070303F1080414941D681B955B681C93E4
:10C400001B981C99FEF71AF901281B9840F07884B4
:10C41000002200231C99FEF75FFF002840F04A86A7
:10C420009DF88FA0032500244EF254484EF250434D
:10C430000D95C0F602080A9DC0F602030C94169CE6
:10C4400025F080050A950325472CD8BF98461095FE
:10C450000024189401E60A9D45F008050A9599F80C
:10C46000003022E50A9C169344F010040A940A9DB9
:10C4700015F020037FF44CAF0A9C14F0100240F03A
:10C480004C830A9C14F0400300F047831498134631
:10C490000025043030F8044C14909EE50A9D45F0C8
:10C4A00020050A9599F80030FFE4149C00251693A6
:10C4B00004348DF88F5054F8048CB8F1000F00F05C
:10C4C000D9850C9800284046C0F2AB8529460C9AC5
:10C4D00002F07EFB002800F0FF851494C8EB0000FA
:10C4E0000C9C0C95A042B8BF0446109424EAE47555
:10C4F0000C9C0D959DF88FA01894AEE50A9D4EF208
:10C500007444C0F602041693A8068DF88F2019947F
:10C5100040F19C80149CE31D23F0070303F1080500
:10C520001495D3E900450A98C30740F1278254EADD
:10C53000050100F02382169A302340F002008DF8A6
:10C5400090300A9002238DF8912046E599F800304A
:10C550002B22AAE499F8003049466C2B05BF09F15B
:10C5600001090A9D0A9C45F020050BBF4B7844F059
:10C5700010040A950A9498E40A9D8DF88F20A90664
:10C5800040F1EB83149C2168129C2246E5172B4650
:10C59000149DC1E900230435149553E4149A4EF216
:10C5A00074400A9D7823C0F602008DF8913045F062
:10C5B000020516930A953023151D8DF890301495B9
:10C5C000022314680025199007E50A9C44F04004F2
:10C5D0000A9499F8003068E499F80030002A7FF452
:10C5E00064AC202261E40A9D45F001050A9599F8A2
:10C5F00000305AE4149C149D24682B1D002C1394C5
:10C60000FFF6B5AC149399F800304EE4149A012467
:10C61000149D0DF1B80816930023126804359A464C
:10C620000D9414958DF88F300C93189310948DF809
:10C63000B82018E50A9D4EF26044C0F60204169335
:10C64000A8068DF88F2019943FF564AF0A9CE10687
:10C6500000F153820A9C620640F14F821498002533
:10C66000043030F8044C14905DE70A9D1693A90637
:10C670008DF88F203FF59BAE0A9CE20600F15582B3
:10C680000A9C630640F151821498043030F9044C3E
:10C6900014902246E5172B4694E60A9D45F0800546
:10C6A0000A9599F8003000E40024A3F130012046F7
:10C6B000139400EB800019F8013B01EB4000A3F15B
:10C6C00030010929F5D91390FFF7F1BB16938DF8C6
:10C6D0008F20002B3FF45EAC169C002301259A4668
:10C6E0000D950DF1B8088DF8B8408DF88F300C938A
:10C6F00018931095B7E40E982BAA0B9903F082F8C3
:10C7000000287FF44EAC9DF88FA038AF2D9C09E532
:10C71000169D652D40F3B9801B98002200231C99BB
:10C72000FEF7D0FD002800F02C812C9B0122179DE4
:10C73000013413447A60072B2D943D60D8BF08372D
:10C740002C9300F31683259B119DAB4203DB0A9DBE
:10C75000ED077FF568AD1D9D2C9B2C441A9D013380
:10C760002D94072B2C933D601D9D7D60D8BF08370D
:10C7700000F35E83119D05F1FF38B8F1000F7FF7DC
:10C7800052ADB8F1100F2C9B40F3AA81AC4D4FF085
:10C79000100ADDF82CB00F950E9D05E0A8F11008E9
:10C7A000B8F1100F40F39E8101331034072B87E856
:10C7B00040042C9307F108072D94EFDD28465946D5
:10C7C0002BAA38AF03F01EF800287FF4EAAB2D9CAB
:10C7D0002C9BE3E7002B40F0B4800A9CE2075CBF8F
:10C7E00010930DF1E0087FF530AC219D30230DF161
:10C7F000DF088DF8DF30109527E413980D99451A5E
:10C80000002D7FF7B4AC102D2C9BDCBF8C4A0F920F
:10C8100024DD8B4822464FF0100BDDF838A00B9C2E
:10C820000F9002E0103D102D17DD01331032072B61
:10C8300087E840082C9307F108072D92F2DD504657
:10C8400021462BAA38AF02F0DDFF00287FF4A9AB08
:10C85000103D2D9A102D2C9BE7DC144601330F99C7
:10C86000072B2C442C9387E82200D8BF08372D943F
:10C870007FF77DAC0E982BAA0B9902F0C3FF00281E
:10C880007FF48FAB2D9C38AF71E4119D2C9B012D53
:10C8900040F3E2810121621C0B44C7F80080072BA2
:10C8A00079602D92D8BF08372C9300F3F4811A9D3C
:10C8B0005C1CDDF874A0072C2C943D6092441D9DF7
:10C8C000CDF8B4A07D60D8BF083700F3D7811B989E
:10C8D000002200231C99FEF7F5FC002840F0B280EE
:10C8E0000134119D072C08F1010205F1FF332C944E
:10C8F0009A443A60CDF8B4A07B6000F3E480083736
:10C90000631C1E9D1E9C072B27AA2C93544487E86A
:10C9100024002D947FF786AC0E982BAA0B9902F079
:10C9200071FF00287FF43DAB2D9C38AF7BE40E985F
:10C930002BAA0B9902F066FF00283FF4C3ACFFF767
:10C9400030BB10920DF1E008FFF77FBB0E982BAAC9
:10C950000B9902F057FF00287FF423AB2D9C38AFD2
:10C96000FFF7F2BB0E982BAA0B9902F04BFF0028A1
:10C970007FF417AB2D9C38AFFFF7F6BB0223FFF710
:10C980002CBB259B002B40F3FF81119D189811991A
:10C990008542A8BF0546002D41440C910CDD2C9B1F
:10C9A0002C44C7F8008001337D60072B2D942C9315
:10C9B000D8BF083700F34383189A25EAE575C5EB1D
:10C9C000020ABAF1000F40F3DD80BAF1100F2C9B80
:10C9D000DCBF1B4D0F9540F3C080194D22464FF030
:10C9E000100B0B9C0F950E9D05E0AAF1100ABAF1F1
:10C9F000100F40F3B18001331032072B87E8400855
:10CA00002C9307F108072D92EFDD284621462BAA2B
:10CA100038AF02F0F7FE00287FF4C3AA2D9A2C9BB2
:10CA2000E3E7002D08BF0A2C80F04181219D3034BE
:10CA30000DF1DF088DF8DF401095FFF706BB00BF52
:10CA400028DF0208119D05F1FF38B8F1000F7FF7CC
:10CA500057AFB8F1100FDCBFA84B0F9328DDA74DDF
:10CA600053464FF0100BDDF82CA00F950E9D04E0FF
:10CA7000A8F11008B8F1100F19DD01341033072C9C
:10CA800087E840082C9407F108072D93F0DD28462D
:10CA900051462BAA38AF02F0B5FE00287FF481AAD8
:10CAA000A8F110082D9BB8F1100F2C9CE5DC9A46DC
:10CAB00001340F9B072CC2442C94CDF8B4A087E816
:10CAC00008017FF71CAF0E982BAA0B9902F09AFE73
:10CAD00000287FF466AADDF8B4A038AF2C9C0FE7DD
:10CAE000864D0F9501330F9D072B44442C932D94B5
:10CAF00087E820017FF796AB0EE7149D043555F8C3
:10CB0000044C149500250EE5149D0123043555F8B9
:10CB1000044C14950025FFF760BA149D043555F8B0
:10CB2000044C14950025FFF758BA149D043555F8A8
:10CB3000044C14952246E5172B46002A73F1000099
:10CB4000BFF645AC4FF02D0A644265EB45058DF804
:10CB50008FA00123FFF745BA144601330F9D072B21
:10CB600054442C9387E82004D8BF08372D9409DD5E
:10CB70000E982BAA0B9902F045FE00287FF411AA0B
:10CB80002D9C38AF189D259BA844119DAB4249DBD5
:10CB90000A9DE90746D40C981199C8EB0005CB1AF9
:10CBA000AB42B8BF1D46002D0CDD2C9A2C44C7F8B3
:10CBB000008001327D60072A2D942C92D8BF08375F
:10CBC00000F34A8225EAE575C5EB0308B8F1000FCA
:10CBD0007FF729ABB8F1100F2C9B81DD474D4FF04B
:10CBE000100ADDF82CB00F950E9D05E0A8F1100895
:10CBF000B8F1100F7FF776AF01331034072B87E8B9
:10CC000040042C9307F108072D94EFDD2846594680
:10CC10002BAA38AF02F0F6FD00287FF4C2A92D9CA4
:10CC20002C9BE3E71D9D2C9A2C441A9D01322D94D8
:10CC3000072A2C923D601D9D7D60D8BF0837AADD74
:10CC40000E982BAA0B9902F0DDFD00287FF4A9A90C
:10CC5000259B38AF2D9C9EE70A9DEA073FF51AAE4B
:10CC6000012204F1010A9C18C7F80080072CCDF8B6
:10CC7000B4A02C947A607FF742AE24E70E982BAADA
:10CC80000B9902F0BFFD00287FF48BA9DDF8B4A05A
:10CC900038AF2C9C1BE60E982BAA0B9902F0B2FD24
:10CCA00000287FF47EA92D9A38AF2C9BFFE50DF16B
:10CCB000DF0B204629460A22002303F063FFD846F3
:10CCC0002046294600230BF1FF3B303288F8002034
:10CCD0000A2203F057FF04460D4654EA0500E8D146
:10CCE000FFF7AFB9302B3FF4ACA9099C3023904635
:10CCF00001F8013CA41A1094FFF7A7B928DF020835
:10CD00001C99FDF79BFC002840F0AB8003250A9C92
:10CD10004EF25C484EF258430D95C0F60208169D3F
:10CD2000C0F6020324F080040C900A94472DD8BF6B
:10CD300098460324189010949DF88FA0FFF78DB9A2
:10CD4000149CE31D23F0070303F1080514951C68E8
:10CD50001B945B681C93FFF753BB0A9CE20672D5D9
:10CD6000149D129C043555F8043C14951C60FFF783
:10CD700069B80E982BAA0B9902F044FD00287FF4A5
:10CD800010A92D9C38AFDEE42C9A0121179D0134A7
:10CD90000A442D94072A2C923D60796000F3128199
:10CDA0000837194629B9119D1DB90A9DE8077FF575
:10CDB0003AAA2C9B1D9A01331D9D22441A9C072BD5
:10CDC0002D927D603C60D8BF08372C9300F3BA8168
:10CDD000C1F1000ABAF1000F40F31681BAF1100F49
:10CDE000DCBF9C4C0F9440F3F9809A4D1024DDF881
:10CDF0002CB00F950E9D05E0AAF1100ABAF1100FA4
:10CE000040F3EC8001331032072B3E607C6007F169
:10CE100008072C932D92EFDD284659462BAA38AFF0
:10CE200002F0F0FC00287FF4BCA82D9A2C9BE3E7CD
:10CE30000E982BAA0B9902F0E5FC00287FF4B1A80C
:10CE40002D9C38AF96E4149C0A9D043454F8043C9D
:10CE500015F0400F129D149414BF1D801D60FEF745
:10CE6000F1BF0C9D169C013524F0200504BF06245B
:10CE70000C9406D0472D04D10C9C002C08BF012433
:10CE80000C941C9B0A9C002B44F480740F94BDBF2F
:10CE90001C464FF02D0B04F1004ADDF870A0A8BF2E
:10CEA0004FF0000BB5F1460461426141002930D0DA
:10CEB00003200C9C5346009025A81B9A029026A89C
:10CEC0000194039029A804900E98079100F086FA27
:10CED000472D0799804603D10A9CE00740F1F08076
:10CEE0000C9C444451B398F80030302B00F08481FE
:10CEF000259B1C4422E00E98402101F0B1FB2060EC
:10CF00002061002800F0B6810B9C40236361FEF78E
:10CF100079BF452D40F031810C9802211B9A534670
:10CF2000441C0091019425A90E98029126A9039111
:10CF300029A9049100F052FA8046044400231B986A
:10CF400000225146FEF7BEF9234648B9299B9C4270
:10CF500006D930215A1C29921970299B9C42F9D874
:10CF6000472DC8EB0303119300F0AE80169C652C8F
:10CF700040F38A81169D662D00F00181259C18944E
:10CF8000189C119DAC42C0F2EA800A9C189DE007F3
:10CF90004BBF013525EAE57325EAE57367244DBFEC
:10CFA000672410951694109548BF1694BBF1000F96
:10CFB00075D10F9C0D93CDF830B00A949DF88FA0D9
:10CFC000FFF74BB80E982BAA0B9902F01BFC002818
:10CFD0007EF4E7AF259938AF2D9CE3E601330F9C33
:10CFE000072B52442C9387E81004D8BF08372D92A2
:10CFF0000ADD0E982BAA0B9902F004FC00287EF49F
:10D00000D0AF2D9A38AF2C9B0133119D119C072B6B
:10D010002C931444C7F800802D947D607FF702A9FB
:10D020007AE40C95FEF74CFE14940C9C9DF88FA0AE
:10D03000189420EAE07510900D95FFF70EB80E9841
:10D040002BAA0B9902F0DEFB00287EF4AAAF2D9CE0
:10D0500038AFB1E428DF02080E982BAA0B9902F032
:10D06000D1FB00287EF49DAF259B38AF119A2D9CF3
:10D07000D31AA7E50C9DC2464EF288481494062D9B
:10D0800028BF0625CDF830A01095544625EAE57551
:10D09000CDF860A00D95C0F60208FEF7DEBF0F9D2B
:10D0A0004FF02D0A00240D938DF88FA00A950C9453
:10D0B000FEF7D6BF4FF02D0A8DF88FA0FFF7B2B95B
:10D0C000299BC8EB03031193259BDA1C11DB0C9CF5
:10D0D0009C420EDB189353E70C9D149425EAE575EA
:10D0E0000D950C9D18900C9010959DF88FA0FEF753
:10D0F000B4BF169D023D1695013B169D002B25934E
:10D10000BABF5B422D222B22092B8DF89C508DF843
:10D110009D2043DC30338DF89F3030238DF89E30D6
:10D1200028AB119D27AA119C9A1A012D1E92144416
:10D13000109478DD109B002418940133109323EA97
:10D14000E37333E70E982BAA0B9902F05BFB0028E0
:10D150007EF427AF259938AF2D9A2C9B38E6189D81
:10D16000119C002DD4BFC5F1020301231C44672587
:10D17000109424EAE473169518E7022099E6259D99
:10D18000002D189558DD0C9C002C44D10A9DED070C
:10D1900041D4189C24EAE473109407E746F26761CF
:10D1A0000DF1AA05C6F2666181FB0320DA172C4651
:10D1B000013DC2EBA00202EB8200A3EB400013464C
:10D1C000092B00F130022270EEDC0DF1AB003033A0
:10D1D000A842DAB204F8012C53D90DF19D0123467F
:10D1E00001E013F8012B834201F8012FF9D148AD7A
:10D1F000C4EB4503F63B94E71B98002200235146FD
:10D20000FEF760F800287FF473AE0C98C0F10103BC
:10D2100025931C4492E60C9D189C6B1C1C44109496
:10D2200024EAE473C2E60A9C14F0010382D1109D43
:10D23000189325EAE573B9E60C9D35B90A9CE40715
:10D240005CBF012310937FF5B1AE0C9D02351095A4
:10D2500025EAE573AAE6149D99F80130A1462D68E8
:10D260000C95149D291D0C9D1491002DBEF61DAE2C
:10D27000FEF718BE0E9D0C234FF0FF302B60FEF71B
:10D2800098BE0DF19E034CE7259B35E7000000009A
:10D290002DE9F04F8C46036983460D6985B09D42A8
:10D2A000C8BF002000F39680013D01F114040BF18A
:10D2B000140A54F82510AA005AF8250091460131A5
:10D2C0000292CDF804C05244039203F01DFBA14426
:10D2D000DDF804C08046002841D0002122460846DF
:10D2E00053460F4652F8041B1E6891451FFA81FEF3
:10D2F0004FEA11410EFB08771FFA86FE01FB08F189
:10D3000001EB1741BFB2C7EB0000864488B2C0EB07
:10D3100016404FEA114700EB2E401FFA8EFE4EEAF0
:10D3200000414FEA204043F8041BDBD2029A5AF82E
:10D330000230A3B9039A131F9A450ED252F8043C47
:10D340005BB9A2F1080301E0126832B99A451A46A6
:10D3500005F1FF35A3F10403F6D3CBF81050614675
:10D36000584601F011FF002833DB08F1010853464D
:10D37000002254F8046B1868A145B1B24FEA164672
:10D38000C1EB020287B202EB0701C6EB104202EBCF
:10D39000214289B241EA02414FEA224243F8041B8A
:10D3A000E7D25AF825200AEB850392B91A1F924555
:10D3B0000DD253F8042C52B9083B01E0126832B97F
:10D3C0009A451A4605F1FF35A3F10403F6D3CBF8CD
:10D3D0001050404605B0BDE8F08F00BF2DE9F04F7A
:10D3E0009BB0466A044692469B46279D002E00F05D
:10D3F000BB82336853B172680126194696409E601D
:10D400005A6001F067FC636A00221A60BBF1000FEA
:10D41000B4BF012300232B604FF00003B4BF2BF0F7
:10D420000049D9461A46C7F6F073C7F6F07209EA02
:10D430000303B8BFCB46934214D0002200235046CA
:10D440005946FDF73FFF804628B3269E01233360EF
:10D45000289E002E00F0DC80AF4B581E33601BB0BE
:10D46000BDE8F08F269E4EF2A04042F20F73C0F648
:10D4700002003360BAF1000F00F0AA80289E002E4F
:10D48000EDD0C378002B40F0B280C31C289E3360DF
:10D490001BB0BDE8F08F19AA18AB0092204601938B
:10D4A00052465B4601F080FF5FEA19550B9040F051
:10D4B000A180189F6FF48263199D3D449D42C0F284
:10D4C00078824FF60E4305F21242CFF6FF732AFA26
:10D4D00002F25B1B09FA03F01043FDF715FC013D56
:10D4E000B84601261596A1F1F87100230022C3F673
:10D4F000F873FDF7CBFA82A3D3E90023FDF77AFC9A
:10D5000081A3D3E90023FDF7C3FA064628460F4658
:10D51000FDF70AFC7EA3D3E90023FDF76BFC02466E
:10D520000B4630463946FDF7B3FA06460F46FDF77F
:10D53000FBFE39460022002304903046FDF7CCFE66
:10D54000002840F02682049E162E84BF01260F96E6
:10D5500012D84DF6A8715246C0F602015B4601EBA7
:10D56000C601D1E90001FDF7D5FE002800F01F82B9
:10D57000013E049600260F96C5EB0805013D069571
:10D5800049BF6E4200260A96002654BF0A960696A8
